:020000040000fa
:080000000001040000000000f3
:020000040000fa
:0400080036020000bc
:020000040000fa
:04000c0036020000b8
:020000040000fa
:0400100036020000b4
:020000040000fa
:0400140036020000b0
:020000040000fa
:0400180036020000ac
:020000040000fa
:04001c0036020000a8
:020000040000fa
:0400200036020000a4
:020000040000fa
:0400240036020000a0
:020000040000fa
:04002800360200009c
:020000040000fa
:04002c003602000098
:020000040000fa
:040030003602000094
:020000040000fa
:04003400fe010000c9
:020000040000fa
:04003800360200008c
:020000040000fa
:04003c003602000088
:020000040000fa
:040040001a020000a0
:020000040000fa
:040044003602000080
:020000040000fa
:04004800360200007c
:020000040000fa
:04004c00e4010000cb
:020000040000fa
:040050003602000074
:020000040000fa
:04005400c8010000df
:020000040000fa
:04005800360200006c
:020000040000fa
:04005c003602000068
:020000040000fa
:040060003602000064
:020000040000fa
:040064003602000060
:020000040000fa
:04006800360200005c
:020000040000fa
:04006c003602000058
:020000040000fa
:040070003602000054
:020000040000fa
:040074003602000050
:020000040000fa
:04007800360200004c
:020000040000fa
:04007c003602000048
:020000040000fa
:040080003602000044
:020000040000fa
:040084003602000040
:020000040000fa
:04008800360200003c
:020000040000fa
:04008c003602000038
:020000040000fa
:040090003602000034
:020000040000fa
:040094003602000030
:020000040000fa
:04009800360200002c
:020000040000fa
:04009c003602000028
:020000040000fa
:0400a0003602000024
:020000040000fa
:0400a4003602000020
:020000040000fa
:0400a800360200001c
:020000040000fa
:0400ac003602000018
:020000040000fa
:0400b0003602000014
:020000040000fa
:0400b4003602000010
:020000040000fa
:0400b800360200000c
:020000040000fa
:0400bc003602000008
:020000040000fa
:0400c0003602000004
:020000040000fa
:0400c4003602000000
:020000040000fa
:0400c80036020000fc
:020000040000fa
:0400cc0036020000f8
:020000040000fa
:0400d00036020000f4
:020000040000fa
:0400d40036020000f0
:020000040000fa
:0400d80036020000ec
:020000040000fa
:0401080036020000bb
:020000040000fa
:04010c0036020000b7
:020000040000fa
:0401100036020000b3
:020000040000fa
:0401140036020000af
:020000040000fa
:0401180036020000ab
:020000040000fa
:04011c0036020000a7
:020000040000fa
:0401200036020000a3
:020000040000fa
:04012400360200009f
:020000040000fa
:04012800360200009b
:020000040000fa
:04012c003602000097
:020000040000fa
:040130003602000093
:020000040000fa
:04013400fe010000c8
:020000040000fa
:04013800360200008b
:020000040000fa
:04013c003602000087
:020000040000fa
:040140001a0200009f
:020000040000fa
:04014400360200007f
:020000040000fa
:04014800360200007b
:020000040000fa
:04014c00e4010000ca
:020000040000fa
:040150003602000073
:020000040000fa
:04015400c8010000de
:020000040000fa
:04015800360200006b
:020000040000fa
:04015c003602000067
:020000040000fa
:040160003602000063
:020000040000fa
:04016400360200005f
:020000040000fa
:04016800360200005b
:020000040000fa
:04016c003602000057
:020000040000fa
:040170003602000053
:020000040000fa
:04017400360200004f
:020000040000fa
:04017800360200004b
:020000040000fa
:04017c003602000047
:020000040000fa
:040180003602000043
:020000040000fa
:04018400360200003f
:020000040000fa
:04018800360200003b
:020000040000fa
:04018c003602000037
:020000040000fa
:040190003602000033
:020000040000fa
:04019400360200002f
:020000040000fa
:04019800360200002b
:020000040000fa
:04019c003602000027
:020000040000fa
:0401a0003602000023
:020000040000fa
:0401a400360200001f
:020000040000fa
:0401a800360200001b
:020000040000fa
:0401ac003602000017
:020000040000fa
:0401b0003602000013
:020000040000fa
:0401b400360200000f
:020000040000fa
:0401b800360200000b
:020000040000fa
:0401bc003602000007
:020000040000fa
:0401c0003602000003
:020000040000fa
:0401c40036020000ff
:020000040000fa
:0401c80036020000fb
:020000040000fa
:0401cc0036020000f7
:020000040000fa
:0401d00036020000f3
:020000040000fa
:0401d40036020000ef
:020000040000fa
:0401d80036020000eb
:020000040000fa
:10020000af8320000eff20000e01880000000000d8
:10021000000020000000e000020032000001200089
:100220002002880014000700920007000000e00090
:1002300003003a00a0dd2200010020000200370088
:100240000000200001002000810f7000010032003a
:1002500014000700000020000000e000020032004f
:100260000000020000000000ba2a020000000000a6
:100270000040da000000fe004440a90060a3210015
:100280000000e0000300320000002000a001880010
:100290004440a800000006008a1f78008b1f7800e9
:1002a0000000060091018800800478000000eb0047
:1002b0001a003700e284440032a0b4009905ba0065
:1002c000e284440032a0b4009906ba00e2844400fb
:1002d00032a0b4000006eb00476fde00fd07b2005d
:1002e000636ce10003003a00ebff07000000eb0045
:1002f0000a003700606ce10004003a00005deb008a
:100300008b05e900fdff3e00040037006168e10055
:10031000010032000086eb000b00070019c7ba008d
:100320001905ba000e04e00003003a000a00e000dc
:10033000e0ff3a0000000600fe07b2009e018800c0
:100340008a047800f5ff3700395dba008b05e900b3
:100350000c003200295dba008b05e900080032006c
:100360000c00e00003003a00e284440032a0b40034
:10037000f5ff370019ddba008b05e900faff3a00f6
:100380008904e800e184440032a0b40000000600c3
:10039000801f78003400f80000002000a0018800d1
:1003a0000000fa0000148000c04088001014800093
:1003b000e04088008560a9000080fa003400f90060
:1003c0004f00780000400600801f78003400f800dd
:1003d00000002000a00188000000fa008520a9008c
:1003e000901080000040780016e8b7000080fa0006
:1003f0003400f9004f00780000400600801f7800ac
:100400003400f80000002000a00188000000fa007d
:100410000021ef00304180000000e80030418800fa
:100420008460a9000080fa003400f9004f007800d1
:1004300000400600801f78003400f8000000200013
:10044000a00188000000fa000621ef004041800072
:100450000000e8004041880084c0a9000080fa0044
:100460003400f9004f007800004006000040da0038
:100470000000fe0000000500889fbe008a9fbe00ad
:100480008c1f780099000700a000330003866c00e1
:100490006450e1002e0032006420e100330032009d
:1004a0006150e1002f0032006120e1003100320094
:1004b00085855500eb07b0000900200008042000e6
:1004c000050037000804440089844c000a0031000c
:1004d0000603430087834b000001530081815b00ca
:1004e000f8ff33000203be000800a0000804440027
:1004f00089844c00f6ff3900c639dd0083017300a2
:1005000001003200130020008904d1000884d300c8
:100510000998a300050032000800a7000300a0000e
:100520008904d1000884d3008b05e8008904d10038
:100530000884d3000001eb000281d20030000700e4
:1005400001f0a1000cf0a70001f0a0007800370036
:100550006420e1007a0032000801be000200be0003
:10056000f7ff37006120e100750032006000b8003d
:10057000f3ff37000000200001f82700f0ff3700ec
:100580000001be00440007000470a70003f0a100b2
:1005900003f8a30013003a006509b100100032000f
:1005a000090035006928e10002003500010028003b
:1005b0000000050000004000818048008502e9003d
:1005c000fcff3a0000000600f88f420005003500ed
:1005d0008100d1000080d3008502e800fcff3a00d2
:1005e000000006008000eb00000005004f89de00df
:1005f00082017800890037006011b8009700370049
:1006000081002000618055000b003d000b002000a0
:1006100061fe2f000100e1001d00340082817100a5
:10062000610164008904d1000884d3000000e8005f
:10063000faff3a00710020006100640003007000be
:10064000020060000900320061044400e0844c00b4
:100650000988a500050032008b05e8006808e10064
:1006600002003a008904d1000884d300f20f200070
:100670000258e10005003d00c75ddd00f907b2004a
:100680008980750008007800000006000bf827003c
:100690008b00780000000500c70ade00f107b200f9
:1006a000f50fb20008003200e1cf42000200320034
:1006b0000170a00024000500810f700001003200cd
:1006c0000408050044000500810f700002003a0094
:1006d000140005008502e9000000400081c04800c8
:1006e000fcff3b000170a000240005000004be00d8
:1006f000e9ff07000003be000405be000200be00c3
:10070000e5ff0700844f7500000006000200be00f0
:100710006450e100050036006420e100020036006c
:100720000968a30001003a000800be000160a000b3
:100730004f0678004f05be004f04be0000000600c3
:10074000f0ff2f00f1ff2700f9ff3700889fbe0060
:100750008a9fbe008c1f7800e4ff0700ebff330088
:1007600003866c006450e100240032006420e10044
:10077000270032006150e100220032006120e100d8
:10078000210032008b854200eb07b1000134b80034
:10079000003ab8000804420089844a00013ab800cf
:1007a0000030b8008880400009014a00040033008e
:1007b0000000400081804800020149008b05e900eb
:1007c000c909dd0083017000010032001300200020
:1007d000c814de004814dd004709de001200b20034
:1007e000c808de000884700085ff070001f0a10042
:1007f0000cf0a70001f0a000cdff37006120e10060
:10080000cfff32000801be000200be00f7ff370034
:100810006150e100fcff3a00c9ff3700881f7800f3
:10082000030478000300e00007003d0060001000b2
:10083000e080180060011900e081190002003b000f
:1008400001f02d00030037000400070008f0a700a6
:1008500001f0a0004f04780000000600889fbe0051
:100860008a9fbe0000827000040271000482710041
:10087000260032000004be000200be006011b80075
:100880006b092000950220000182cf000a00390088
:100890000541b1000082cf00070039000541b100d9
:1008a0000982cf00040039000541b1000882cf0061
:1008b000010039000541b10005425200120032002a
:1008c0000a003b0082817100610164008100d10057
:1008d0000080d3008984d3000884d3008b05e8000e
:1008e0000442e800f7ff3a0007003700080444001c
:1008f00089844c0000004800818048008b05e90095
:100900000442e900f9ff3a003dff07004f05be0031
:080910004f04be0000000600c8
:020000040000fa
:1009180000000000000000000000000000000000cf
:10092800f8ec000004060000061e00003820000055
:10093800203800001e06000006040000ecf8000045
:10094800000000000000000000000000000000009f
:10095800000000000000000000000000000000008f
:10096800000000000000000000000000000000007f
:10097800000000000000000000000000000000006f
:10098800000000000000000000000000000000005f
:10099800000000000000000000000000000000004f
:1009a800000000000000000000000000000000003f
:1009b800000000000000000000000000000000002f
:1009c800000000000000000000000000000000001f
:1009d800000000000000000000000000000000000f
:1009e80000000000000000000000000000000000ff
:1009f80000000000000000000000000000000000ef
:100a080000000000000000000000000000000000de
:100a1800003800003e63000061c3000003030000cb
:100a28000301000080e0000030180000080c0000fe
:100a38000c08000018300000e080000001030000ee
:100a480003030000c1610000673e00003800000099
:100a5800000000000000000000000000000000008e
:100a6800000000000000000000000000000000007e
:100a7800000000000000000000000000000000006e
:100a8800000000000000000000000000000000005e
:100a9800000000000000000000000000000000004e
:100aa800000000000000000000000000000000003e
:100ab800000000000000000000000000000000002e
:100ac800000000000000000000000000000000001e
:100ad800000000000000000000e000001804000012
:100ae80006380000c0000000000000000000000000
:100af80000000000000000000000000000000000ee
:100b080000000000000000000000000000000000dd
:100b1800000c00007cc6000086c30000c0c00000b6
:100b2800c0800000010700000c1800001030000011
:100b380030100000180c00000701000080c0000001
:100b4800c0c00000c3860000e67c00001c00000056
:100b5800000000000000000000000000000000008d
:100b6800000000000000000000000000000000007d
:100b7800000000000000000000000000000000006d
:100b8800000000000000000000000000000000005d
:100b9800000000000000000000000000000000004d
:100ba800000000000000000000000000000000003d
:100bb800000000000000000000000000000000002d
:100bc800000000000000000000000000000000001d
:100bd80000000000000000000007000018200000ce
:100be800408000000102000004080000101000000e
:100bf8001020000020200000c0400000000000007d
:100c080000000000000000000000000000000000dc
:100c180000000000000000000000000000000000cc
:100c28001f33000020600000603800001c04000032
:100c3800041c00007860000020300000170f00003e
:100c4800000000000000000000000000000000009c
:100c5800000000000000000000000000000000008c
:100c6800000000000000000000000000000000007c
:100c7800000000000000000000000000000000006c
:100c8800000000000000000000000000000000005c
:100c9800000000000000000000000000000000004c
:100ca800000000000000000000000000000000003c
:100cb800000000000000000000000000000000002c
:100cc800000000000000000000000000000000001c
:100cd800000000000000000000000000000000000c
:100ce80000000000010100000202000002020000f2
:100cf80002020000010100000000000000000000e6
:100d080000000000000000000000000000000000db
:100d180000000000000000000000000000000000cb
:100d280000000000000000000000000000000000bb
:100d380000000000000000000000000000000000ab
:10112800f8ec000004060000061e0000382000004d
:10113800203800001e06000006040000ecf800003d
:101148000000000000000000000000000000000097
:101158000000000000000000000000000000000087
:101168000000000000000000000000000000000077
:101178000000000000000000000000000000000067
:101188000000000000000000000000000000000057
:101198000000000000000000000000000000000047
:1011a8000000000000000000000000000000000037
:1011b8000000000000000000000000000000000027
:1011c8000000000000000000000000000000000017
:1011d8000000000000000000000000000000000007
:1011e80000000000000000000000000000000000f7
:1011f80000000000000000000000000000000000e7
:1012080000000000000000000000000000000000d6
:10121800003800003e63000061c3000003030000c3
:101228000301000080e0000030180000080c0000f6
:101238000c08000018300000e080000001030000e6
:1012480003030000c1610000673e00003800000091
:101258000000000000000000000000000000000086
:101268000000000000000000000000000000000076
:101278000000000000000000000000000000000066
:101288000000000000000000000000000000000056
:101298000000000000000000000000000000000046
:1012a8000000000000000000000000000000000036
:1012b8000000000000000000000000000000000026
:1012c8000000000000000000000000000000000016
:1012d8000000000000000000000000000000000006
:1012e80000000000000000000000000000000000f6
:1012f80000000000000000000000000000000000e6
:1013080000000000000000000000000000000000d5
:10131800000c00007cc6000086c30000c0c00000ae
:10132800c0800000010700000c1800001030000009
:1013380030100000180c00000701000080c00000f9
:10134800c0c00000c3860000e67c00001c0000004e
:101358000000000000000000000000000000000085
:101368000000000000000000000000000000000075
:101378000000000000000000000000000000000065
:101388000000000000000000000000000000000055
:101398000000000000000000000000000000000045
:1013a8000000000000000000000000000000000035
:1013b8000000000000000000000000000000000025
:1013c8000000000000000000000000000000000015
:1013d8000000000000000000000000000000000005
:1013e80000000000000000000000000000000000f5
:1013f80000000000000000000000000000000000e5
:1014080000000000000000000000000000000000d4
:1014180000000000000000000000000000000000c4
:101428001f33000020600000603800001c0400002a
:10143800041c00007860000020300000170f000036
:101448000000000000000000000000000000000094
:101458000000000000000000000000000000000084
:101468000000000000000000000000000000000074
:101478000000000000000000000000000000000064
:10193800000000003eff0000ff3e00000000000025
:1019480000000000000d00000d0000000000000075
:101958000004000007030000000400000703000063
:10196800000000000000000000000000000000006f
:1019780010fe0000fe10000010fe0000fe10000027
:10198800010f00000f010000010f00000f0100000f
:101998001c3e000022ff0000ff420000ce8c000029
:1019a80003070000040f00000f04000007030000f5
:1019b8000000000006c60000f03c00000e02000017
:1019c80000040000070300000006000006000000f5
:1019d8001e3f0000e1c10000412100003f1e000041
:1019e800060f0000090900000b0c00001e1600007d
:1019f80000000000040700000300000000000000d1
:101a080000000000000000000000000000000000ce
:101a180000000000f8fe00000701000000000000c0
:101a280000000000000700000e0800000000000091
:101a38000000000001070000fef8000000000000a0
:101a480000000000080e0000070100000000000070
:101a580020a80000f870000070f80000a82000001e
:101a6800000000000000000000000000000000006e
:101a78002020000020fc0000fc20000020200000a6
:101a8800000000000001000001000000000000004c
:101a9800000000000000000000000000000000003e
:101aa80000000000203c00001c00000000000000b6
:101ab800202000002020000020200000202000001e
:101ac800000000000000000000000000000000000e
:101ad80000000000000000000000000000000000fe
:101ae80000000000000c00000c00000000000000d6
:101af8000000000000c00000f03c00000f030000e0
:101b0800000c00000f0300000000000000000000af
:101b1800feff00000101000001010000fffe0000bf
:101b2800070f000008080000080800000f07000061
:101b38000004000006ff0000ff0000000000000095
:101b480000080000080f00000f080000080000004f
:101b58000203000081c10000613100001f0e000077
:101b68000e0f00000908000008080000080c00001b
:101b7800020300000121000021210000ffde000017
:101b8800040c000008080000080800000f07000007
:101b9800e0f00000988c000086ff0000ff000000c5
:101ba8000000000000000000080f00000f080000ff
:101bb8003f3f00002121000021210000e1c1000079
:101bc800040c000008080000080800000f070000c7
:101bd800fcfe00002321000021210000e0c00000dd
:101be800070f000008080000080800000f070000a1
:101bf8000303000001810000e17900001f070000d5
:101c080000000000000f00000f00000000000000ae
:101c1800deff00002121000021210000ffde00007e
:101c2800070f000008080000080800000f07000060
:101c38001e3f00002121000021210000fffe0000be
:101c48000008000008080000080c00000703000056
:101c5800000000000018000018000000000000004c
:101c68000000000000060000060000000000000060
:101c7800000000000018000018000000000000002c
:101c880000000000101e00000e0000000000000010
:101c980040e00000b01800000c0600000200000040
:101ca8000000000001030000060c0000080000000e
:101cb80000a00000a0a00000a0a00000a00000005c
:101cc800000000000000000000000000000000000c
:101cd80000020000060c000018b00000e040000000
:101ce800000800000c0600000301000000000000ce
:101cf8000203000001c10000e13100001f0e0000d6
:101d080000000000000d00000d00000000000000b1
:101d18000203000001c10000e13100001f0e0000b5
:101d280000000000000d00000d0000000000000091
:101d3800f8fc00008683000083860000fcf80000a1
:101d48000f0f000000000000000000000f0f00004f
:101d5800ffff00002121000021210000ffde00001c
:101d68000f0f000008080000080800000f07000017
:101d7800fcfe000003010000010100000306000052
:101d8800030700000c080000080800000c0600000b
:101d980001ff0000ff01000001030000fefc00003d
:101da800080f00000f080000080c000007030000df
:101db80001ff0000ff210000217100000303000063
:101dc800080f00000f080000080800000c0c0000b5
:101dd80001ff0000ff210000217100000303000043
:101de800080f00000f0800000000000000000000bd
:101df800fcfe00000301000041410000c3c60000d2
:101e0800030700000c08000008080000070f000086
:101e1800ffff00002020000020200000ffff00003e
:101e28000f0f000000000000000000000f0f00006e
:101e38000001000001ff0000ff0100000100000098
:101e480000080000080f00000f080000080000004c
:101e5800000000000000000001ff0000ff0100007a
:101e6800060e000008080000080f00000700000028
:101e780001ff0000ff700000d88c0000070300007d
:101e8800080f00000f000000000100000f0e000006
:101e980001ff0000ff01000000000000000000003a
:101ea800080f00000f080000080800000c0c0000d4
:101eb800ffff00000c780000780c0000ffff000016
:101ec8000f0f000000000000000000000f0f0000ce
:101ed800ffff00001c38000070e00000ffff00005a
:101ee8000f0f000000000000000000000f0f0000ae
:101ef800feff00000101000001010000fffe0000dc
:101f0800070f000008080000080800000f0700007d
:101f180001ff0000ff210000212100003f1e0000fa
:101f2800080f00000f08000000000000000000007b
:101f3800feff00000101000001010000fffe00009b
:101f4800070f0000080e00001c3800002f070000d3
:101f580001ff0000ff21000021610000ff9e00003a
:101f6800080f00000f080000000000000f0f00001d
:101f78000e1f00003121000021610000c78600000b
:101f8800060e000008080000080800000f070000ff
:101f98000303000001ff0000ff010000030300002d
:101fa80000000000080f00000f08000000000000fb
:101fb800ffff00000000000000000000ffff00001d
:101fc800070f000008080000080800000f070000bd
:101fd800ffff00000000000000000000ffff0000fd
:101fe80001030000060c00000c06000003010000bd
:101ff800ffff000000e00000e0000000ffff00001d
:10200800010f00000e030000030e00000f01000086
:10201800070f000098f00000f09800000f0700007c
:102028000e0f000001000000000100000f0e00006c
:102038000f1f000030e00000e03000001f0f00001c
:1020480000000000080f00000f080000000000005a
:1020580003830000c1610000311900000f07000070
:102068000f0f000008080000080800000c0c000012
:1020780000000000ffff0000010100000000000058
:10208800000000000f0f000008080000000000001a
:1020980055aa000055aa000055aa000055aa00003c
:1020a80055aa000055aa000055aa000055aa00002c
:1020b8000000000001010000ffff00000000000018
:1020c80000000000080800000f0f000000000000da
:1020d800080c000006030000030600000c080000be
:1020e80000000000000000000000000000000000e8
:1020f80000000000000000000000000000000000d8
:102108001010000010100000101000001010000047
:1021180000000000080f0000070000000000000099
:1021280000000000000000000000000000000000a7
:10213800009000009090000090f00000e000000087
:10214800070f000008080000080700000f0800003b
:1021580001ff0000ff10000010300000e0c0000088
:10216800080f000007080000080800000f0700001b
:10217800e0f00000101000001010000030200000f7
:10218800070f000008080000080800000c04000001
:10219800c0e000003010000011ff0000ff00000048
:1021a800070f000008080000080700000f080000db
:1021b800e0f000009090000090900000f0e0000037
:1021c800070f000008080000080800000c040000c1
:1021d80000100000feff00001111000003020000c3
:1021e800000800000f0f00000800000000000000b9
:1021f800e0f000001010000010e00000f0100000f7
:10220800276f000048480000487f00003f0000009a
:1022180001ff0000ff20000010100000f0e00000a7
:10222800080f00000f000000000000000f0f000062
:102238000010000010f60000f6000000000000008a
:1022480000080000080f00000f0800000800000048
:102258000000000010100000f6f60000000000006a
:1022680030600000404000007f3f00000000000098
:1022780001ff0000ffc00000c06000003010000037
:10228800080f00000f000000010300000e0c000002
:102298000001000001ff0000ff0000000000000036
:1022a80000080000080f00000f08000008000000e8
:1022b800f0f0000030e00000e0300000f0e0000046
:1022c8000f0f000000070000070000000f0f0000bc
:1022d80010f00000e010000010100000f0e0000016
:1022e800000f00000f000000000000000f0f0000aa
:1022f800e0f000001010000010100000f0e00000f6
:10230800070f000008080000080800000f07000079
:1023180010f00000e010000010100000f0e00000d5
:10232800407f00007f480000080800000f070000f9
:10233800e0f000001010000010e00000f0100000b5
:10234800070f000008080000487f00007f400000d9
:1023580010f00000e0100000101000003020000015
:10236800000f00000f000000000000000000000047
:1023780060f00000909000009010000030200000f5
:10238800040c000008080000090900000f060000fe
:1023980010100000feff00001010000000000000f8
:1023a80000000000070f0000080c000004000000f7
:1023b800f0f000000000000000f00000f000000055
:1023c800070f000008080000080700000f080000b9
:1023d800f0f000000000000000000000f0f0000035
:1023e80001030000060c00000c06000003010000b9
:1023f800f0f000000080000080000000f0f0000015
:10240800070f00000c070000070c00000f07000072
:102418001030000060c00000c060000030100000f4
:10242800080c000006030000030600000c0800006a
:10243800f0f000000000000000000000f0f00000d4
:10244800474f000048480000486800003f1f000050
:102458003030000010900000d070000030100000f4
:102468000c0e00000b090000080800000c0c00000e
:10247800000000000000000000000000005f0000f5
:102488000000000000070000000700000014000022
:102498007f1400007f140000242a00007f2a000017
:1024a800122300001308000064620000364900008f
:1024b8005522000050000000050300000000000045
:1024c800001c000022410000000000004122000022
:1024d8001c000000082a00001c2a00000808000050
:1024e800083e00000808000000500000300000000e
:1024f800000800000808000008080000003000007c
:102508003000000000200000100800000402000055
:102518003e510000494500003e000000427f000097
:1025280040000000426100005149000046210000bf
:10253800414500004b31000018140000127f0000d4
:102548001027000045450000453900003c4a0000be
:10255800494900003001000071090000050300002e
:102568003649000049490000360600004949000084
:10257800291e0000003600003600000000000000a0
:102588005636000000000000000800001422000079
:10259800411400001414000014140000412200002b
:1025a80014080000000200000151000009060000a4
:1025b80032490000794100003e7e00001111000000
:1025c800117e00007f49000049490000363e0000a6
:1025d80041410000412200007f41000041220000eb
:1025e8001c7f000049490000494100007f090000a4
:1025f80009010000013e0000414100005132000085
:102608007f080000080800007f000000417f0000ec
:102618004100000020400000413f0000017f000011
:1026280008140000224100007f40000040400000e4
:10263800407f000002040000027f00007f040000c9
:10264800081000007f3e000041410000413e0000ac
:102658007f09000009090000063e00004151000002
:10266800215e00007f09000019290000464600008d
:102678004949000049310000010100007f010000c4
:10268800013f000040400000403f00001f200000c4
:10269800402000001f7f000020180000207f00005d
:1026a80063140000081400006303000004780000ad
:1026b8000403000061510000494500004300000088
:1026c800007f0000414100000204000008100000e3
:1026d80020410000417f00000000000004020000cb
:1026e800010200000440000040400000404000009b
:1026f8000001000002040000002000005454000003
:10270800547800007f480000444400003838000036
:1027180044440000442000003844000044480000bd
:102728007f3800005454000054180000087e000050
:10273800090100000208000014540000543c000085
:102748007f0800000404000078000000447d0000b9
:102758004000000020400000443d00000000000050
:102768007f10000028440000004100007f40000066
:10277800007c000004180000047800007c080000b9
:102788000404000078380000444400004438000085
:102798007c14000014140000080800001414000041
:1027a800187c00007c0800000404000008480000b1
:1027b8005454000054200000043f0000444000002e
:1027c800203c000040400000207c00001c2000004d
:1027d800402000001c3c000040300000403c00004d
:1027e8004428000010280000440c0000505000004d
:1027f800503c000044640000544c000044000000b9
:102808000836000041000000000000007f000000c2
:102818000000000041360000080000000808000021
:102828002a1c0000080800001c2a000008080000f4
:102838000000000000000000000000000000000090
:102848000000000000000000000000000000000080
:102858000000000000000000000000000000000070
:102868000000000000000000000000000000000060
:102c780053560000455400004c4f0000005000001f
:102c8800495200000044000049530000542e00003f
:102c980000250000004e0000415a00004144000099
:102ca800004100006c6300002e3a00002031000053
:102cb80030250000004100006c6300002e3a00003f
:102cc8002032000030250000004100006c63000045
:102cd8002e3a00002033000030250000004100009b
:102ce8006c6300002e3a00002034000030250000fc
:102cf800004100006c6300002e3a000020350000ff
:102d080030250000004100006c6300002e3a0000ee
:102d18002036000030250000004100006c630000f0
:102d28002e3a000020370000302500000041000046
:102d38006c6300002e3a00002038000030250000a7
:102d4800004100006c6300002e3a000020390000aa
:102d580030250000004100006c6300002e3a00009e
:102d6800203100003030000025000000dc000000a9
:102d78003a0e0000ce0e00005a0f000000000000be
:102d8800000000000000000000000000000000003b
:102d9800000000000000000000000000000000002b
:102da800000000000000000000000000000000001b
:102db800000000000000000000000000000000000b
:102dc80000000000000000000000000000000000fb
:102dd80000000000000000000000000000000000eb
:102de80000000000000000000000000000000000db
:102df80000000000000000000000000000000000cb
:102e080000000000000000000000000000000000ba
:102e180000000000000000000000000000000000aa
:102e2800000000000000000000000000000000009a
:102e3800000000000000000000000000000000008a
:102e4800000000000000000000000000000000007a
:102e5800000000000000000000000000000000006a
:102e6800000000000000000000000000000000005a
:102e7800000000000000000000000000000000004a
:102e8800000000000000000000000000000000003a
:102e9800000000000000000000000000000000002a
:102ea80000000000f0f0000000000000000000003a
:102eb800000000000000000000000000000000000a
:102ec80000000000000000000000000000000000fa
:102ed80000000000000000000000000000000000ea
:102ee80000000000000000000000000000000000da
:102ef8000000000000000000f0f0000000000000ea
:102f080000000000000000000000000000000000b9
:102f180000000000000000000000000000000000a9
:102f28000000000000000000000000000000000099
:102f38000000000000000000000000000000000089
:102f4800000000000000000000000000f0f0000099
:102f5800f000000000000000000000000000000079
:102f68000000000000000000000000000000000059
:102f78000000000000000000000000000000000049
:102f88000000000000000000000e00001e3c0000d1
:102f980078f00000e0c000000000000000800000a1
:102fa800808000009f9f00008080000000000000db
:102fb80080000000c0e00000703800001c0e000017
:102fc80006000000000000000000000000000000f3
:102fd800000000000000000000000000000e0000db
:102fe8001e3c000078f00000e0c0000000800000f7
:102ff80080c00000c0c00000cfcf0000c0c00000eb
:103008008080000000000000e0f000007038000040
:103018001c0e000007030000000000000000000074
:103028000000000000000000000000000000000098
:10303800000600000e1c000038700000e0c0000010
:103048000080000080c00000c0c00000cfcf00009a
:10305800cfc00000c080000080000000c0e0000079
:10306800703800001c0e000007030000000000007c
:103078000000000000000000000000000000000048
:10308800c0c00000c0c00000c0c00000c0c0000038
:1030980000000000e0f80000fcfe0000ffff000058
:1030a800ffff0000ffff0000ffff0000ffff000020
:1030b800fefd0000f000000000c00000c0c00000dd
:1030c800c0c00000c0c00000c0c000000000000078
:1030d80000000000c0c00000c0c00000c0c0000068
:1030e800c0c0000000e00000f8fe00000f03000070
:1030f80003810000f1fc00003cfc0000f1c100006d
:10310800030300000ffe0000fcf0000000c00000f8
:10311800c0c00000c0c00000c0c00000c0c00000a7
:103128000000000000000000c0c00000c0c0000097
:10313800c0c00000c0c00000c0000000f8fe0000d1
:103148001f0700000301000001000000000000004c
:103158000001000001030000071f0000fef8000046
:1031680000c00000c0c00000c0c00000c0c0000017
:10317800c0c00000000000000000000000000000c7
:103188000000000000000000000000000000000037
:1031980000c00000c1c700001f3f00003f7f0000c3
:1031a8007fff0000ffff00007f7f00007f3f0000df
:1031b8001f0f0000c3c000008000000000000000d6
:1031c80000000000000000000000000000000000f7
:1031d80000000000000000000000000000000000e7
:1031e8000000000080c10000cf9f00003c7000007c
:1031f8006eef0000c3c30000c3c30000c3ef0000ac
:103208006e7000003c1f0000cfd30000800000005b
:1032180000000000000000000000000000000000a6
:103228000000000000000000000000000000000096
:10323800000000000000000000800000c7cf000070
:103248001e38000070600000e0e00000c0c0000010
:10325800e0e0000060700000381e0000cfc70000ea
:1032680080000000000000000000000000000000d6
:103278000000000000000000000000000000000046
:103288000000000000000000001800001c0e0000f4
:10329800070300000100000000000000000000001b
:1032a80000000000fcfc000000000000000000001e
:1032b8000000000001010000070f00001e1c0000b4
:1032c80018000000000000000000000000000000de
:1032d800000000000000000000000000001c0000ca
:1032e8001e0f00000703000001000000000000009e
:1032f8000000000000000000fcfc000000000000ce
:10330800000000000000000001030000070f00009b
:103318001e1c000028300000000000000000000013
:103328000000000000000000000000000000000095
:10333800001c00001c0e0000070300000100000034
:10334800000000000000000000000000fefe000079
:103358000000000000000000000000000001000064
:10336800030700000e1c00001c0000000000000005
:103378000000000000000000000000000000000045
:103388000000000000000000000000000000000035
:103398000000000000000000000000000000000025
:1033a800000000000303000000000000000000000f
:1033b8000000000000000000000000000000000005
:1033c80000000000000000000000000000000000f5
:1033d80000000000000000000000000000000000e5
:1033e80000000000000000000000000000000000d5
:1033f80000000000000000000303000000000000bf
:1034080000000000000000000000000000000000b4
:1034180000000000000000000000000000000000a4
:103428000000000000000000000000000000000094
:103438000000000000000000000000000000000084
:10344800000000000000000000000000030300006e
:103458000000000000000000000000000000000064
:103468000000000000000000000000000000000054
:103478000000000000000000000000000000000044
:103488000000000000000000000000000000000034
:103498000000000000000000000000000000000024
:1034a8000000000000000000000000000000000014
:1034b8000000000000000000000000000000000004
:1034c80000000000000000000000000000000000f4
:1034d80000000000000000000000000000000000e4
:1034e80000000000000000000000000000000000d4
:1034f80000000000000000000000000000000000c4
:1035080000000000000000000000000000000000b3
:1035180000000000000000000000000000000000a3
:103528000000000000000000000000000000000093
:103538000000000000000000000000000000000083
:103548000000000000000000000000000000000073
:103558000000000000000000000000000000000063
:103568000000000000000000000000000000000053
:103578000000000000000000000000000000000043
:10358800000000000000000000000000f8ec00004f
:1035980004060000061e0000382000002038000045
:1035a8001e06000006040000ecf800000000000001
:1035b8000000000000000000000000000000000003
:1035c80000000000000000000000000000000000f3
:1035d80000000000000000000000000000000000e3
:1035e80000000000000000000000000000000000d3
:1035f80000000000000000000000000000000000c3
:1036080000000000000000000000000000000000b2
:1036180000000000000000000000000000000000a2
:103628000000000000000000000000000000000092
:103638000000000080800000000000000000000082
:103648000002000004080000102000000000000034
:103658008080000040400000404f000040400000d3
:103668008080000000200000100800000402000014
:103678000100000000000000808000000038000009
:103688003e63000061c30000030300000301000063
:1036980080e0000030180000080c00000c08000052
:1036a80018300000e0800000010300000303000060
:1036b800c1610000673e0000380000000000000003
:1036c80000000000000000000000000000000000f2
:1036d80000000000000000000000000000000000e2
:1036e80000000000000000000000000000000000d2
:1036f80000000000000000000000000000000000c2
:1037080000000000000000000000000000000000b1
:1037180000000000000000000000000000000000a1
:103728000000000000000000000000000000000091
:10373800000000000000000001010000020200007b
:103748000400000000e0000018040000060100006a
:103758000000000000000000000000000000000061
:10376800000000000102000004180000e000000052
:10377800020200000101000000000000000c00002f
:103788007cc6000086c30000c0c00000c0800000e6
:10379800010700000c180000103000003010000075
:1037a800180c00000701000080c00000c0c0000025
:1037b800c3860000e67c00001c000000000000003a
:1037c80000000000000000000000000000000000f1
:1037d80000000000000000000000000000000000e1
:1037e80000000000000000000000000000000000d1
:1037f80000000000000000000000000000000000c1
:1038080000000000000000000000000000000000b0
:1038180000000000000000000000000000000000a0
:103828000000000000000000000000000000000090
:103838000001000001010000010100000101000079
:1038480080400000000700001820000040800000b1
:103858000000000000000000000000000000000060
:1038680000000000c0400000201800000700000011
:10387800000000008181000001010000000000003c
:103888000000000000000000000000001f330000de
:1038980020600000603800001c040000041c0000c8
:1038a8007860000020300000170f000000000000c2
:1038b8000000000000000000000000000000000000
:1038c80000000000000000000000000000000000f0
:1038d80000000000000000000000000000000000e0
:1038e80000000000000000000000000000000000d0
:1038f80000000000000000000000000000000000c0
:1039080000000000000000000000000000000000af
:10391800000000000000000000000000000000009f
:10392800000000000000000000000000000000008f
:103938000000000000000000040200000101000077
:103948000000000000000000c03000000800000077
:10395800010100000202000002f200000202000061
:1039680001010000000000000810000020400000d5
:1039780080000000000000000101000000000000bd
:10398800000000000000000000000000000000002f
:10399800000000000000000000000000000000001f
:1039a800000000000000000000000000000000000f
:1039b80000000000000000000000000000000000ff
:1039c80000000000000000000000000000000000ef
:1039d80000000000000000000000000000000000df
:1039e80000000000000000000000000000000000cf
:1039f80000000000000000000000000000000000bf
:103a080000000000000000000000000000000000ae
:103a1800000000000000000000000000000000009e
:103a2800000000000000000000000000000000008e
:103a3800000000000000000000000000000000007e
:103a4800000000000001000000000000000000006d
:103a5800000000000000000000030000000000005b
:103a6800000000000000000000000000000000004e
:103a7800000000000000000000000000000000003e
:103a8800000000000000000000000000000000002e
:103a9800000000000000000000000000000000001e
:020000040000fa
:103d84000000fa005e0207008040eb000040eb00f8
:103d9400db01070093c1b300c2c3b3008040eb0052
:103da4000040eb009b03070063c3b300c2c3b3002e
:103db400b1c1b3000040eb009603070093c1b30008
:103dc400f2c7b3008040eb0000c4b30091030700c6
:103dd40063c3b300f2c7b300b1c1b30000c4b300fe
:103de4008c03070011c0b300d0c0b300c4010700a6
:103df400c06329004904070011c0b30050c5b300d3
:103e0400bf010700306429004404070051c0b30017
:103e1400e0c0b300ba010700706429003f04070042
:103e240051c0b300a0c5b300b5010700d064290098
:103e34003a0407008040eb000040eb00b0010700ab
:103e4400f3c3b30012c3b30081c3b3000040eb005b
:103e54007003070071c0b300a0c0b300a80107003d
:103e6400f06429002d0407000080fa000000060019
:103e74000200fa00000f780051c0b30030c2b30052
:103e84009f0107001e007800cf80de00420620005c
:103e940003002000820f5000838f580084003e00ee
:103ea40000600100640037006300370062003700df
:103eb40061003700600037005f0037005e003700a4
:103ec4005d0037005c0037005b0037005a003700a4
:103ed4005c0037005b0037005a0037005900370098
:103ee4005800370057003700560037005500370098
:103ef4005400370053003700550037005400370092
:103f0400530037005200370051003700500037008b
:103f14004f0037004e0037004d0037004c0037008b
:103f24004e0037004d0037004c0037004b0037007f
:103f34004a0037004900370048003700470037007f
:103f44004600370045003700470037004600370079
:103f54004500370044003700430037004200370073
:103f640041003700400037003f0037003e00370073
:103f7400400037003f0037003e0037003d00370067
:103f84003c0037003b0037003a0037003900370067
:103f94003800370037003700390037003800370061
:103fa400370037003600370035003700340037005b
:103fb400330037003200370031003700300037005b
:103fc4003200370031003700300037002f0037004f
:103fd4002e0037002d0037002c0037002b0037004f
:103fe4002a003700290037002b0037002a00370049
:103ff4002900370028003700270037002600370043
:104004002500370024003700230037002200370042
:104014002400370023003700220037002100370036
:10402400200037001f0037001e0037001d00370036
:104034001c0037001b00370050652900b703070038
:104044001c003700f0652900b4030700190037008d
:1040540090662900b1030700160037003067290075
:10406400ae03070013003700d0672900ab03070035
:104074001000370070682900a80307000d003700fe
:1040840010692900a50307000a003700b069290058
:10409400a203070007003700506a29009f030700a6
:1040a40004003700f06a29009c0307000100370070
:1040b400000000000080fa00000006000200fa0080
:1040c400004f78001e4078000004e0000400320035
:1040d400101780000050a00010178800030037005c
:1040e400101780000050a100101788000080fa000b
:1040f400000006000200fa00004f78001e4078001d
:104104000004e00004003200101780000040a0000a
:104114001017880003003700101780000040a1002a
:10412400101788000080fa00000006000200fa0060
:10413400004f78001e4078000004e00004003200c4
:10414400101780000010a00010178800030037002b
:10415400101780000010a100101788000080fa00da
:10416400000006000200fa00004f78001e407800ac
:104174000004e00004003200101780000000a000da
:104184001017880003003700101780000000a100fa
:10419400101788000080fa00000006000200fa00f0
:1041a400004f78001e4078000004e0000400320054
:1041b400501680000050a0005016880003003700fd
:1041c400501680000050a100501688000080fa00ac
:1041d400000006000200fa00004f78001e4078003c
:1041e4000004e00004003200501680000040a000eb
:1041f4005016880003003700501680000040a100cc
:10420400501688000080fa00000006000000fa0042
:10421400dea2a900de82a900de22a900de02a90036
:10422400a8a2a800c6a2a900a882a800c682a900c4
:10423400a802a800c602a900a822a800c622a900b4
:10424400a842a800c642a900a862a800c662a900a4
:10425400d202a900d222a900d242a900d262a900a6
:104264000080fa00000006000200fa00004f780007
:104274001e4078000004e00008003a00d202a900c1
:10428400d222a900d242a900d262a900c662a90022
:10429400c642a900c622a900c602a9001e40780091
:1042a400e14f500008003a00d202a800d222a80030
:1042b400d242a800d262a800c662a800c642a800e2
:1042c400c622a800c602a8000080fa00000006006a
:1042d4000400fa0020479800ae409000014f780097
:1042e400b116800000ff2f0000806000b016880027
:1042f4005116800000ff2f000080600050168800d7
:104304009e4078006fc06000104798001e409000e7
:104314008080fb0050168000010070005016880059
:104324001e80fb004400de00004f78009e80fb00ee
:10433400b016800001007000b01688000080fa00fa
:10434400000006000200fa00a0168000004f78006a
:104354009e407800400020000008dd00004f7800f7
:1043640040168000104798001e4090006f40600087
:10437400104798001e4090001e40400010479800cf
:104384001e4090000080fa00000006000000fa00c1
:1043940010c0b30057ff07000040eb0055ff0700b3
:1043a4000080fa00000006000200fa00004f7800c6
:1043b4000040eb006bff07000040eb005bff0700d1
:1043c4001e407800c2ff0700f0ff07000080fa00db
:1043d400000006000400fa00100798000000eb003b
:1043e400000f7800010037001e0fe8001e00900047
:1043f4009e007800808f5000fbff39000080fa0097
:10440400000006000200fa000040eb0055ff070020
:1044140010c0b30045ff070010c0b30092ff0700af
:1044240010c0b30033ff0700c6ff0700004f780039
:104434000040eb002fff070002003700c1ff070018
:10444400004f78001e4078000004e000fbff3500b8
:104454000080fa00000006000200fa00004f780015
:10446400f0c3b3009e40780080cf500008003e00a7
:1044740010c0b300320007001e4078000064a000a2
:10448400c9ff070010c0b30038e8b7000a003700be
:104494001e4078000004e000070035000040eb00f7
:1044a4002700070000ccb3001e4040000064a000b9
:1044b400bdff07003868ef001e41780061832000cb
:1044c400824878000080fa00000006000200fa002a
:1044d400004f78001e407800e74f500006003e0071
:1044e40080cbb3001e407000afff07001e41780070
:1044f40071832000824878000080fa0000000600e2
:104504000200fa00004f7800114798001e4078001e
:10451400d1ff07001e409000ecff07000080fa0066
:10452400000006000200fa00004f780000ccb3003f
:104534001e4070009cff07000080fa000000060087
:104544000200fa00004f78000040eb0005ff07006e
:104554001e4078000004e0000a003a000040eb002e
:10456400f2fe070010c0b3001aff07000040eb0082
:104574000aff0700f0c3b3008bff07003868ef00a1
:104584000a0037000040eb00e8fe07000040eb00a3
:1045940010ff070010c0b30000ff0700f0c3b30012
:1045a40081ff070010c0b30038e8b7000080fa00ac
:1045b400000006000200fa0010c0b3002aff070042
:1045c40010c0b300e7fe070010c0b300d7fe070019
:1045d4006eff070010c0b300c6fe070059ff0700b6
:1045e400004f78000040eb00c2fe07000040eb00e3
:1045f4001dff07000040eb00dafe07000040eb005f
:10460400cafe07001e4078000080fa000000060081
:104614000000fa000040eb002dff07000040eb0013
:10462400d0fe07000040eb00c0fe07000040eb0096
:10463400b0fe07000040eb00e6fe07000040eb0080
:10464400d6fe070010c0b3009cfe0700a0002000a7
:1046540060ff07000040eb0098fe0700a000200068
:104664005cff070010c0b30094fe070010c0b30045
:10467400b3ff0700e0c3b3004bff070000ccb30057
:1046840049ff070080cbb30047ff070000c4b30015
:1046940045ff0700f0c3b30043ff07000040eb00f1
:1046a400a7ff0700e0c3b3003fff070000ccb3003f
:1046b4003dff070080cbb3003bff070000c4b300fd
:1046c40039ff0700f0c3b30037ff07000080fa008a
:1046d400000006000200fa00004f780010c0b3008a
:1046e400a0fe07000040eb0090fe07001e4078008b
:1046f400f7fe070025ff07000080fa00000006000f
:104704000200fa000040eb00104798001d0037003b
:104714009e4090000040eb0079ff07000040eb0052
:10472400004f7800030037000040eb00e9ff07006a
:104734001e4fe800f0c3b3009e40780080cf5000c5
:10474400f9ff36009e40900000c4b3006cff0700e0
:104754000040eb00004f7800030037000040eb00fe
:10476400dcff07001e4fe800f0c3b3009e40780052
:1047740080cf5000f9ff36001e4090000040e80052
:10478400104798001e409000e74f5000e0ff3600ad
:104794000080fa00000006000200fa000040eb006e
:1047a400104798001d0037009e4090000040eb0029
:1047b40053ff07000040eb00004f78000300370070
:1047c40000c0eb00c3ff07001e4fe800f0c3b300b6
:1047d4009e40780080cf5000f9ff36009e40900044
:1047e40000c4b30046ff07000040eb00004f780010
:1047f4000300370000c0eb00b6ff07001e4fe800bf
:10480400f0c3b3009e40780080cf5000f9ff36001b
:104814001e4090000040e800104798001e409000a1
:10482400e74f5000e0ff36000080fa000000060069
:104834000400fa00100798000040eb0010479800ad
:104844002c0037009e4090000040eb002cff070036
:104854000040eb00004f78000a0037001e40900033
:104864000080fb00c700dd001e80fb0000804000cc
:104874009e009000008040001040780095ff0700e3
:104884001e4fe800f0c3b3009e40780080cf500074
:10489400f2ff36009e40900000c4b30018ff0700ea
:1048a4000040eb00004f78000b0037001e409000e2
:1048b4000080fb00c700dd001e80fb00008040007c
:1048c4000004b0009e00900000804000104078007a
:1048d40080ff07001e4fe800f0c3b3009e4078003d
:1048e40080cf5000f1ff36001e4090000040e800e9
:1048f400104798001e409000e74f5000d1ff36004b
:104904000080fa00000006000400fa002047980026
:10491400314798000040eb00004f78003e40900083
:104924000080fb004300de000040780080407800f7
:104934002e409000f2fe07001eff0700004f780093
:104944003e4090000080fb004300de000040780001
:10495400804078002e409000e9fe07003e40900021
:104964000080fb0067006000110020000008dd00eb
:10497400804078001e40780000c0700055ff07009a
:104984000080fa00000006000400fa0020479800a6
:10499400314798000040eb00004f78003e40900003
:1049a4000080fb004300de00004078008040780077
:1049b4002e409000d2fe0700fefe0700004f780054
:1049c4003e4090000080fb004300de000040780081
:1049d400804078002e409000c9fe07003e409000c1
:1049e4000080fb0067006000110020000008dd006b
:1049f4000040780080c0ea001e40780000c06000db
:104a040034ff07000080fa00000006000c00fa00e2
:104a1400004f9800114f9800224f98000000eb00bf
:104a2400000f78000000eb00100798000000eb0076
:104a3400200798009e4890000e48900000c0500047
:104a4400604798002e4890000080fb0010079800f3
:104a54002e4890008080fb00e0ff2f000088b90002
:104a640000007800630f4000640037001e009000cf
:104a7400804078001e48900080c040002e009000c6
:104a8400004178000e489000004041009eff07005e
:104a94001e009000004078009e48900080c05000a6
:104aa4002e009000004178000e4890000040410024
:104ab40095ff07001e009000804078001e4890007b
:104ac40080c040002e009000004078000e49900005
:104ad400004051008cff07001e0090000040780049
:104ae4009e48900080c050002e0090000040780046
:104af4000e4990000040510083ff07002e009000f3
:104b0400804078001e48900080c040001e00900045
:104b1400004178001e489000004141006e40900022
:104b24000040510078ff07002e00900000407800fc
:104b34009e48900080c050001e0090000041780004
:104b44001e489000004141006e409000004051001a
:104b54006dff07002e009000804078001e489000f2
:104b640080c040001e009000004078001e49900064
:104b7400004151006e4090000040510062ff070068
:104b84002e009000004078009e48900080c05000a5
:104b94001e009000004078001e4990000041510022
:104ba4006e4090000040510057ff07001e0078003f
:104bb4000000e00005003d002e0090004200dd00f2
:104bc400660040001e0f400009003700ae00900050
:104bd4001e009000008050004200dd006a0040008a
:104be4001e0f40001e0090000000e900100798000e
:104bf4002e0090000000e80020079800ae0090000e
:104c04001e009000808f500098ff34000080fa004e
:104c1400000006000600fa0020479800314798007b
:104c240042479800534798000040eb00004f78003b
:104c34000040eb00004f7800090037002e40900040
:104c44001e404000be4090002fff07002e40900001
:104c54001e404000de4090002bff07001e4fe8007e
:104c64009e80fb004e4090000081fb002e4090008f
:104c74000080fb00000051000000e800808f50001d
:104c8400eeff35000040eb00004f78000b003700ca
:104c94003e4090001e404000804078002e4090002e
:104ca40019ff07003e4090001e40400080407800fd
:104cb4004e40900014ff07001e4fe8009e80fb004a
:104cc4005e4090000081fb003e4090000080fb00ad
:104cd400000051000000e800808f5000ecff350018
:104ce4000080fa00000006000400fa002047980043
:104cf40036c8bf000080fb00e5004000f00720003c
:104d0400808f50000800340037c8bf000040e8001e
:104d140037e8b70037c8bf00e74f5000010036003e
:104d24003768ef003668ef00718320009140780007
:104d340036c8bf00f2fd07000040eb00004f7800ca
:104d4400130037002e4090000000fb006500b900fe
:104d54000000780001f62f00808040001e80fb00d8
:104d640000804000c12329006140780059fe0700fb
:104d740036c8bf000040e80036e8b7007183200061
:104d84009140780036c8bf00ddfd07001e4fe800e3
:104d94001e407800e44f5000eaff36000040eb006c
:104da4004cfe070036c8bf000040e80036e8b700f4
:104db4000080fa00000006000400fa002047980072
:104dc40036c8bf000080fb00e8004000f007200068
:104dd400808f50000b00340037c8bf000040e8004b
:104de40037e8b70037c8bf000040e80037e8b7002d
:104df40037c8bf00e74f5000010036003768ef00a6
:104e04003668ef000040eb00004f78003e003700aa
:104e1400718320009140780036c8bf00b8fd0700b8
:104e24002e4090000000fb000002b100c400dd0031
:104e34001e80fb0000804000c1c82800614078004b
:104e440024fe070037c8bf000040e8008040780017
:104e540080cbb30000c0700053fd070061832000c5
:104e640091407800f0c3b30080cf500008003e00aa
:104e740010c0b300b2fd070036c8bf000064a00034
:104e840049fd070010c0b30038e8b7000c00370034
:104e940036c8bf000004e000090035000040eb0004
:104ea400a7fd0700618320009140780000ccb30087
:104eb40000c040000064a0003bfd07003868ef001c
:104ec4002e4090000000fb000002b100c400dd0091
:104ed4001e80fb000080400068004000c1c828001c
:104ee40061407800fbfd070036c8bf000040e800c1
:104ef40036e8b700718320009140780036c8bf00bf
:104f04007ffd07001e4fe8001e407800e74f500069
:104f1400bfff36000080fa00000006000200fa001d
:104f2400000f7800040037001e007800104078005d
:104f34006dff07001e0fe8001e0078001040780087
:104f44000004e000f8ff3a000080fa0000000600c8
:104f54000600fa00404798004e4090000080fb0095
:104f6400cf80de00a0ed07006266260063fa23000e
:104f740040ed070081ed0700204798000040eb005a
:104f8400004f780014003700ae409000114798009d
:104f9400070037009e4090001e4078005afe07002c
:104fa4009e4090002e40900000c0400010479800a2
:104fb4001e4090008080fb002e4090000080fb008b
:104fc4000204200000005100808f5000f1ff3500e2
:104fd4009e40780063cf4000e0c7b3009e40780055
:104fe40080cf5000e8ff36004e40900000cfe9002b
:104ff4000f0037000040eb00104798000600370010
:105004009e4090001e4078003ffe07001e40900026
:1050140000c0e800104798009e409000e0c3b30031
:1050240080cf5000f6ff36004e4090001e4f4000e7
:10503400b0c7b3009e40780080cf5000edff36002b
:105044000080fa00000006000600fa0020479800dd
:105054003147980042479800534798000040eb00be
:10506400004f78000040eb00004f78000900370043
:105074002e4090001e404000be40900042fe0700bb
:105084002e4090001e404000de4090003efe07008f
:105094001e4fe8009e80fb004e4090000081fb0004
:1050a4002e4090000080fb00000051000000e8004a
:1050b400808f5000eeff35000040eb00004f780079
:1050c4000b0037003e4090001e40400080407800b6
:1050d4002e4090002cfe07003e4090001e404000f1
:1050e400804078004e40900027fe07001e4fe800e5
:1050f4009e80fb005e4090000081fb003e409000db
:105104000080fb00000051000000e800808f500088
:10511400ecff35000080fa00000006000400fa00ed
:10512400100798000000eb00000f78000100370022
:105134001e0fe8001e0090009e007800808f500033
:10514400fbff39000080fa00000006000000fa00ae
:10515400a8e2a900a8c2a900c162a900d322a9009b
:10516400d262a900c742a900c6c2a800c6e2a8002c
:10517400d302a800dea2a900dec2a900de82a90033
:10518400cda2a900cdc2a900a902a900a922a90003
:10519400c702a800c722a8000080fa000000060089
:1051a4000200fa00000f78002828ef000000000039
:1051b4009e00780030418000808f5000fcff3e004c
:1051c4000080fa00000006000200fa00000f7800d8
:1051d4002628ef00000000009e0078003041800087
:1051e400808f5000fcff3e000080fa0000000600a3
:1051f4000000fa00b01680000000d1006140600099
:1052040000c0ea00614060000080fb0061006000b3
:1052140000004000b11680000110a10001007000e0
:10522400b016880010002000e7ff0700b0168000c9
:105234000000d1006140600000c0ea0061406000ed
:105244000080fb006100600000004000b116800097
:105254000110a10001007000b01688003001200088
:10526400d9ff07000080fa00000006000000fa00e1
:10527400b01680000000d1006140600000c0ea0068
:10528400614060000080fb0061006000000040009d
:10529400b11680000110a10001007000b016880052
:1052a40020002000c8ff0700b01680000000d100d5
:1052b4006140600000c0ea00614060000080fb00c3
:1052c4006100600000004000b11680000110a100e0
:1052d40001007000b016880020012000baff07000a
:1052e4000080fa00000006000000fa00e0408000a0
:1052f40070418800e040800001af20000080500031
:1053040080418800c942a80080418000a4ff0700b2
:10531400c942a90070418000a1ff07000080fa0083
:10532400000006000200fa00c0408000c500de0054
:10533400904120000008b8008100d1004006200000
:105344000088b90000007800000f78001e00780083
:105354000080fa00000006000000fa002428ef0094
:10536400204180000080fa00000006000000fa00de
:10537400007d200020418800204180000080fa0048
:10538400000006000000fa00f3ff0700000c88008c
:105394000071220082ff0700f4ff0700000c880060
:1053a400007122007eff07000080fa000000060062
:1053b4000200fa000000eb00000f7800080037003c
:1053c400d402a900e015200075ff0700d402a8004c
:1053d400e015200072ff0700d402a9001e0fe800a8
:1053e4001e007800e90f5000f5ff36000080fa0037
:1053f400000006000200fa000000eb00000f780035
:1054040008003700d402a9004006200064ff07000a
:10541400d402a800401f200061ff0700d402a900a5
:105424001e0fe8001e007800ee0f5000f5ff360056
:105434000080fa00000006000000fa0000000000ee
:105444001116800000802000008060000000e00051
:10545400fbff320005e1a8000000000011168000e7
:1054640000802000008060000000e000fbff3a00a4
:1054740005e1a90000088000904088000080fa003f
:10548400000006000000fa000032200060088800d6
:10549400d1408000d0cc2c000008b8004308de00c6
:1054a400300c880060fc2d00500c880011e1a8002d
:1054b4000080fa00000006000000fa00d262a80092
:1054c4004000200036ff0700d262a9000080fa00e5
:1054d400000006000000fa00cfa2a800cfc2a90075
:1054e400d1a2a800d1c2a900401f20000bff0700d1
:1054f4006040800020408800d1a2a900d1c2a80049
:10550400cfa2a900cfc2a800401f200003ff0700bc
:10551400704080003040880020408000100ab100b4
:105524008000eb0033ec0700324d2a0043d1230006
:1055340085ec070011ec070000007800404088006b
:1055440030408000401fb1008000eb0029ec0700d0
:10555400a2772c0093ca23007bec070007ec07001a
:1055640000007800504088000080fa000000060027
:105574001400fa00000f9800110f98000000eb00cf
:10558400000f78000000eb00100798000000eb000b
:10559400200798000000eb0030079800100020005e
:1055a400400798000000eb00500798000000eb0053
:1055b40060079800a0002000700798000d00070005
:1055c40034010700e1fe070010fb070010fc070090
:1055d4004bfc070000f42100e9000700a1e2a80049
:1055e400c040800032000700d00020000e000700f9
:1055f400fbff37000000fa0050012000a0108800d3
:105604000d42a9008d20a80071108000c0ff2f005a
:1056140000806000701088000de2a8000f42a8000e
:105624000080fa00000006000200fa00000f780073
:105634000000000071108000001020000080600055
:105644000000e000fbff3200601080006600600094
:10565400e60f500003003a009e0078008110880095
:1056640003003700f00f20001e0060008010880047
:105674000080fa00000006000000fa00881f78008d
:105684000004780004003700184078000000fb0094
:10569400e5ff07000804e800184078000004e00073
:1056a400f9ff3a004f0478000080fa000000060079
:1056b4000400fa00100798001e009000c300de00ea
:1056c400500c22000008b8004408de00004f7800a7
:1056d4001e80fb000003b000d3ff07009e80fb0088
:1056e40080c12f000088b900000078009e0090005f
:1056f40000804000100798001e009000c200de00e9
:10570400b04721000008b8000100d100004f780024
:105714001e80fb000003b000c3ff07009e80fb0057
:10572400c0f92f000088b900000078009e009000a6
:1057340000804000100798009e009000d0cc2c0000
:105744000008b8004308de00004f78001e80fb000c
:105754000003b000b4ff07009e80fb0060ff2f0031
:105764000088b900000078009e009000008040008e
:10577400100798001e0090000003b000aaff070065
:105784000080fa00000006000000fa008cc0a900a6
:1057940011e1a90084c0a9000080fa0000000600fd
:1057a4000200fa00000f780084c0a9001e007800ef
:1057b4000040780067406000674060006740600018
:1057c4000080fb00670060004800dd00b204800038
:1057d400f18f2f008100610001007000b004880087
:1057e4009e007800688060004300de00004078007e
:1057f400614060000080fb00610060004600dd0045
:10580400610480000160a100010070006004880050
:105814000080fa00000006000400fa00000f78007f
:10582400110798000621ef009e009000610888008f
:105834009e007800810888001061a9000080fa00a9
:10584400000006000000fa00300880000080fa0022
:10585400000006000200fa00000f78009e007800a5
:10586400310888000080fa00000006000400fa00f5
:105874001007980090ff2f00c9ff07000000eb00fd
:10588400f4ff07009e009000010f78009e0078004e
:1058940090f82d00e0ff07000080fa0000000600e9
:1058a4000000fa008c60a90005e1a9008460a90049
:1058b4000080fa00000006000200fa00000f7800e1
:1058c4008460a9001e0078000040780067406000f2
:1058d40067406000674060000080fb006700600074
:1058e4004c00dd00a2048000f1ff2800810061006b
:1058f40001007000a00488009e00780068806000a9
:105904004300de0000407800614060000080fb003e
:10591400610060004300dd00610480000130a100eb
:1059240001007000600488000080fa000000060096
:105934000400fa00000f7800110798000021ef001e
:105944009e009000110888009e00780021088800bd
:105954000080fa00000006000000fa000008800041
:105964000080fa00000006000200fa00000f780030
:105974009e007800010888000080fa0000000600fc
:105984000400fa001007980090ff2f00caff0700d8
:105994000000eb00f4ff07009e009000010f780068
:1059a4009e00780090f82d00e1ff07000080fa00c7
:1059b400000006000000fa008ce0a90013e1a90031
:1059c40084e0a9000080fa00000006000200fa004a
:1059d400000f780084e0a9001e00780000407800e1
:1059e4006740600067406000674060000080fb0023
:1059f400670060004c00dd00b2048000f1ff280065
:105a04008100610001007000b00488009e007800ed
:105a1400688060004300de00004078006140600060
:105a24000080fb00610060004700dd00610480002d
:105a34000170a10001007000600488000080fa0079
:105a4400000006000400fa00000f78001107980017
:105a54000a21ef009e009000710888009e007800e3
:105a6400910888000080fa00000006000000fa0097
:105a7400500880000080fa00000006000200fa00ce
:105a8400000f78009e007800510888000080fa001a
:105a9400000006000000fa00a1a2a9000115800080
:105aa400f0cf2f00008060000015880001158000f1
:105ab400000e20000100700000158800a022a8003c
:105ac4001115800000002e000100700010158800e0
:105ad400a342a8001115800030fc2f000080600054
:105ae4000030a00010158800a222a900a202a9007b
:105af4002115800000f021000100700020158800ad
:105b0400a4e2a8002115800000fc2f0000806000a2
:105b1400f001b30020158800a782a900a682a9007d
:105b24003115800000ff2f000080600030158800d0
:105b340031158000f00f2f000080600030158800c0
:105b4400a822ef00000c200050158800a042a800f5
:105b54008560a8008d60a8000080fa00000006009f
:105b64000000fa000621ef004006200060088800cb
:105b74001021a80084c0a9008cc0a80011e1a800cd
:105b84000080fa00000006000000fa000021ef0087
:105b940000712200600888000421a8008460a90024
:105ba4008c60a80005e1a8000080fa00000006004f
:020000040000fa
:105bb4000008000036000000000000003608000065
:0c5bc400040000000000000000000000d1
:020000040000fa
:0200000401f009
:040000001587000060
:020000040000fa
:0200000401f009
:040004003f000000b9
:020000040000fa
:0200000401f009
:04001400ffff0000ea
:00000001FF
