:020000040000fa
:080000000001040000000000f3
:020000040000fa
:040008001e020000d4
:020000040000fa
:04000c001e020000d0
:020000040000fa
:040010001e020000cc
:020000040000fa
:040014001e020000c8
:020000040000fa
:040018001e020000c4
:020000040000fa
:04001c001e020000c0
:020000040000fa
:040020001e020000bc
:020000040000fa
:040024001e020000b8
:020000040000fa
:040028001e020000b4
:020000040000fa
:04002c001e020000b0
:020000040000fa
:040030001e020000ac
:020000040000fa
:040034001e020000a8
:020000040000fa
:040038001e020000a4
:020000040000fa
:04003c001e020000a0
:020000040000fa
:0400400002020000b8
:020000040000fa
:040044001e02000098
:020000040000fa
:040048001e02000094
:020000040000fa
:04004c00e8010000c7
:020000040000fa
:040050001e0200008c
:020000040000fa
:04005400c8010000df
:020000040000fa
:040058001e02000084
:020000040000fa
:04005c001e02000080
:020000040000fa
:040060001e0200007c
:020000040000fa
:040064001e02000078
:020000040000fa
:040068001e02000074
:020000040000fa
:04006c001e02000070
:020000040000fa
:040070001e0200006c
:020000040000fa
:040074001e02000068
:020000040000fa
:040078001e02000064
:020000040000fa
:04007c001e02000060
:020000040000fa
:040080001e0200005c
:020000040000fa
:040084001e02000058
:020000040000fa
:040088001e02000054
:020000040000fa
:04008c001e02000050
:020000040000fa
:040090001e0200004c
:020000040000fa
:040094001e02000048
:020000040000fa
:040098001e02000044
:020000040000fa
:04009c001e02000040
:020000040000fa
:0400a0001e0200003c
:020000040000fa
:0400a4001e02000038
:020000040000fa
:0400a8001e02000034
:020000040000fa
:0400ac001e02000030
:020000040000fa
:0400b0001e0200002c
:020000040000fa
:0400b4001e02000028
:020000040000fa
:0400b8001e02000024
:020000040000fa
:0400bc001e02000020
:020000040000fa
:0400c0001e0200001c
:020000040000fa
:0400c4001e02000018
:020000040000fa
:0400c8001e02000014
:020000040000fa
:0400cc001e02000010
:020000040000fa
:0400d0001e0200000c
:020000040000fa
:0400d4001e02000008
:020000040000fa
:0400d8001e02000004
:020000040000fa
:040108001e020000d3
:020000040000fa
:04010c001e020000cf
:020000040000fa
:040110001e020000cb
:020000040000fa
:040114001e020000c7
:020000040000fa
:040118001e020000c3
:020000040000fa
:04011c001e020000bf
:020000040000fa
:040120001e020000bb
:020000040000fa
:040124001e020000b7
:020000040000fa
:040128001e020000b3
:020000040000fa
:04012c001e020000af
:020000040000fa
:040130001e020000ab
:020000040000fa
:040134001e020000a7
:020000040000fa
:040138001e020000a3
:020000040000fa
:04013c001e0200009f
:020000040000fa
:0401400002020000b7
:020000040000fa
:040144001e02000097
:020000040000fa
:040148001e02000093
:020000040000fa
:04014c00e8010000c6
:020000040000fa
:040150001e0200008b
:020000040000fa
:04015400c8010000de
:020000040000fa
:040158001e02000083
:020000040000fa
:04015c001e0200007f
:020000040000fa
:040160001e0200007b
:020000040000fa
:040164001e02000077
:020000040000fa
:040168001e02000073
:020000040000fa
:04016c001e0200006f
:020000040000fa
:040170001e0200006b
:020000040000fa
:040174001e02000067
:020000040000fa
:040178001e02000063
:020000040000fa
:04017c001e0200005f
:020000040000fa
:040180001e0200005b
:020000040000fa
:040184001e02000057
:020000040000fa
:040188001e02000053
:020000040000fa
:04018c001e0200004f
:020000040000fa
:040190001e0200004b
:020000040000fa
:040194001e02000047
:020000040000fa
:040198001e02000043
:020000040000fa
:04019c001e0200003f
:020000040000fa
:0401a0001e0200003b
:020000040000fa
:0401a4001e02000037
:020000040000fa
:0401a8001e02000033
:020000040000fa
:0401ac001e0200002f
:020000040000fa
:0401b0001e0200002b
:020000040000fa
:0401b4001e02000027
:020000040000fa
:0401b8001e02000023
:020000040000fa
:0401bc001e0200001f
:020000040000fa
:0401c0001e0200001b
:020000040000fa
:0401c4001e02000017
:020000040000fa
:0401c8001e02000013
:020000040000fa
:0401cc001e0200000f
:020000040000fa
:0401d0001e0200000b
:020000040000fa
:0401d4001e02000007
:020000040000fa
:0401d8001e02000003
:020000040000fa
:10020000cf8120000eff20000e01880000000000ba
:10021000000020000000e000020032000001200089
:100220002002880014000700860007000000e0009c
:1002300003003a00005c20000100200002003700ab
:100240000000200001002000810f7000010032003a
:1002500014000700000020000000e000020032004f
:10026000000002000000000018030200000000006f
:100270000040da000000fe004440a9000000200019
:100280000000e0000300320000002000a001880010
:100290004440a800000006008a1f78008b1f7800e9
:1002a0000000060091018800800478000000eb0047
:1002b0001a003700e284440032a0b4009905ba0065
:1002c000e284440032a0b4009906ba00e2844400fb
:1002d00032a0b4000006eb00476fde00fd07b2005d
:1002e000636ce10003003a00ebff07000000eb0045
:1002f0000a003700606ce10004003a00005deb008a
:100300008b05e900fdff3e00040037006168e10055
:10031000010032000086eb000b00070019c7ba008d
:100320001905ba000e04e00003003a000a00e000dc
:10033000e0ff3a0000000600fe07b2009e018800c0
:100340008a047800f5ff3700395dba008b05e900b3
:100350000c003200295dba008b05e900080032006c
:100360000c00e00003003a00e284440032a0b40034
:10037000f5ff370019ddba008b05e900faff3a00f6
:100380008904e800e184440032a0b40000000600c3
:10039000801f78003400f80000002000a0018800d1
:1003a0000000fa0000148000204088001014800033
:1003b0001040880020148000304088008560a9002b
:1003c0000080fa003400f9004f0078000040060079
:1003d000801f78003400f80000002000a001880091
:1003e0000000fa008520a9009010800000407800ed
:1003f00000e8b7000080fa003400f9004f007800f0
:1004000000400600801f78003400f8000000200043
:10041000a00188000000fa000621ef008040800063
:100420000000e800804088008460a9000080fa0095
:100430003400f9004f007800004006000040da0068
:080440000000fe0000000500b1
:020000040000fa
:100448000000fa00a942a800d202a900d222a900fd
:10045800c742a900c602a800c622a800c642a80032
:10046800d302a8000080fa00000006000200fa008b
:10047800000f78001028ef00000000009e007800b0
:1004880080408000808f5000fcff3e000080fa0012
:10049800000006000000fa00b01680000000d1003d
:1004a8006140600000c0ea00614060000080fb001d
:1004b8006100600000004000b11680000110a1003a
:1004c80001007000b0168800a0002000e7ff0700b8
:1004d800b01680000000d1006140600000c0ea0052
:1004e800614060000080fb00610060000000400087
:1004f800b11680000110a10001007000b01688003c
:10050800e00b2000d9ff07000080fa000000060079
:100518000000fa00b01680000000d10061406000c1
:1005280000c0ea00614060000080fb0061006000dc
:1005380000004000b11680000110a1000100700009
:10054800b016880040012000c8ff0700b0168000e0
:100558000000d1006140600000c0ea006140600016
:100568000080fb006100600000004000b1168000c0
:100578000110a10001007000b0168800400b200097
:10058800baff07000080fa00000006000000fa0029
:1005980030408000a04088003040800001af20003b
:1005a80000805000b0408800c942a800b0408000d8
:1005b800aeff0700c942a900a0408000abff0700ba
:1005c8000080fa00000006000000fa00a116800072
:1005d80000102000008060000000e00002003200ef
:1005e80010002000010037000000eb000080fa0036
:1005f800000006000200fa0010408000c500de007e
:10060800904120000008b8008100d1004006200079
:100618000088b90000007800000f78001e007800fc
:100628000080fa00000006000400fa00000f7800bd
:1006380011079800300007001c010700110107008e
:10064800d202a900309c20006008880040012000e8
:10065800000c8800803e2000100c880060ff2d00f0
:10066800200c880011e1a800409c20007040880000
:1006780070408000000c8800a1e2a8007140800052
:10068800209c2000808f500006003e0070408000b3
:100698000000e8007040880070408000000c88006e
:1006a800030037000e28ef0070408000000c88001f
:1006b8000a28ef000c0037000c28ef000300370071
:1006c800604080000000e8006040880061408000d1
:1006d800b0032000808f5000f9ff360050408000a2
:1006e8000000e8005040880050408000f30f5000a0
:1006f800f1ff3600e1ff37000000fa000004200097
:10070800a01088000d42a8008d20a800711080005c
:10071800c0ff2f0000806000701088000de2a80064
:100728000f42a8000080fa00000006000200fa004c
:10073800000f7800000000007110800000102000f9
:10074800008060000000e000fbff320060108000c5
:1007580066006000e60f500003003a009e00780033
:100768008110880003003700f00f20001e00600091
:10077800801088000080fa00000006000000fa00df
:10078800881f7800000478000400370018407800bb
:100798000000fb00e5ff07000804e80018407800a7
:1007a8000004e000f9ff3a004f0478000080fa00e6
:1007b800000006000400fa00100798001e009000d0
:1007c800c300de00500c22000008b8004408de0018
:1007d800004f78001e80fb000003b000d3ff070025
:1007e8009e80fb0080c12f000088b90000007800bf
:1007f8009e00900000804000100798001e009000a6
:10080800c200de00b04721000008b8000100d10096
:10081800004f78001e80fb000003b000c3ff0700f4
:100828009e80fb00c0f92f000088b9000000780006
:100838009e00900000804000100798009e009000e5
:10084800d0cc2c000008b8004308de00004f780028
:100858001e80fb000003b000b4ff07009e80fb0071
:1008680060ff2f000088b900000078009e0090000b
:1008780000804000100798001e0090000003b000a0
:10088800aaff07000080fa00000006000000fa0036
:100898008c60a90005e1a9008460a9000080fa0025
:1008a800000006000200fa00000f78008460a9002a
:1008b8001e007800004078006740600067406000d4
:1008c800674060000080fb00670060004c00dd00ae
:1008d800a2048000f1ff280081006100010070007f
:1008e800a00488009e007800688060004300de0055
:1008f80000407800614060000080fb0061006000fb
:100908004300dd00610480000130a1000100700097
:10091800600488000080fa00000006000400fa0065
:10092800000f7800110798000021ef009e0090004a
:10093800110888009e007800210888000080fa00cd
:10094800000006000000fa00000880000080fa009d
:10095800000006000200fa00000f78009e007800f0
:10096800010888000080fa00000006000400fa0070
:100978001007980090ff2f00caff07000000eb0047
:10098800f4ff07009e009000010f78009e00780099
:1009980090f82d00e1ff07000080fa000000060033
:1009a8000000fa008cc0a90011e1a90084c0a900c8
:1009b8000080fa00000006000200fa00000f78002c
:1009c80084c0a9001e0078000040780067406000dd
:1009d80067406000674060000080fb0067006000bf
:1009e8004800dd00b2048000f18f2f008100610013
:1009f80001007000b00488009e00780068806000e4
:100a08004300de0000407800614060000080fb0089
:100a1800610060004600dd00610480000160a10003
:100a280001007000600488000080fa0000000600e1
:100a38000400fa00000f7800110798000621ef0063
:100a48009e009000610888009e0078008108880058
:100a58001061a9000080fa00000006000000fa00fa
:100a6800300880000080fa00000006000200fa004a
:100a7800000f78009e007800310888000080fa0096
:100a8800000006000000fa000621ef0000712200b5
:100a9800600888001021a90084c0a9008cc0a800a3
:100aa80011e1a8000080fa00000006000000fa002a
:100ab800a1a2a90001158000f0cf2f0000806000de
:100ac8000015880001158000000e2000010070004c
:100ad80000158800a022a8001115800000002e0033
:100ae8000100700010158800a342a80011158000ad
:100af80030fc2f00008060000030a0001015880036
:100b0800a222a900a202a9002115800000f021005c
:100b18000100700020158800a4e2a80021158000bb
:100b280000fc2f0000806000f001b3002015880051
:100b3800a782a900a682a9003115800000ff2f0016
:100b4800008060003015880031158000f00f2f00fc
:100b58000080600030158800a822ef007000200097
:100b680050158800a042a8008560a8008d60a800e4
:080b78000080fa0000000600f5
:020000040000fa
:100b8000000800001c000000000000000000000041
:020000040000fa
:0200000401f009
:040000000587000070
:020000040000fa
:0200000401f009
:040004003f000000b9
:00000001FF
