:020000040000fa
:080000000001040000000000f3
:020000040000fa
:0400080032020000c0
:020000040000fa
:04000c0032020000bc
:020000040000fa
:0400100032020000b8
:020000040000fa
:0400140032020000b4
:020000040000fa
:0400180032020000b0
:020000040000fa
:04001c0032020000ac
:020000040000fa
:0400200032020000a8
:020000040000fa
:0400240032020000a4
:020000040000fa
:0400280032020000a0
:020000040000fa
:04002c00320200009c
:020000040000fa
:040030003202000098
:020000040000fa
:0400340002020000c4
:020000040000fa
:040038003202000090
:020000040000fa
:04003c00320200008c
:020000040000fa
:040040001e0200009c
:020000040000fa
:040044003202000084
:020000040000fa
:040048003202000080
:020000040000fa
:04004c00e8010000c7
:020000040000fa
:040050003202000078
:020000040000fa
:04005400c8010000df
:020000040000fa
:040058003202000070
:020000040000fa
:04005c00320200006c
:020000040000fa
:040060003202000068
:020000040000fa
:040064003202000064
:020000040000fa
:040068003202000060
:020000040000fa
:04006c00320200005c
:020000040000fa
:040070003202000058
:020000040000fa
:040074003202000054
:020000040000fa
:040078003202000050
:020000040000fa
:04007c00320200004c
:020000040000fa
:040080003202000048
:020000040000fa
:040084003202000044
:020000040000fa
:040088003202000040
:020000040000fa
:04008c00320200003c
:020000040000fa
:040090003202000038
:020000040000fa
:040094003202000034
:020000040000fa
:040098003202000030
:020000040000fa
:04009c00320200002c
:020000040000fa
:0400a0003202000028
:020000040000fa
:0400a4003202000024
:020000040000fa
:0400a8003202000020
:020000040000fa
:0400ac00320200001c
:020000040000fa
:0400b0003202000018
:020000040000fa
:0400b4003202000014
:020000040000fa
:0400b8003202000010
:020000040000fa
:0400bc00320200000c
:020000040000fa
:0400c0003202000008
:020000040000fa
:0400c4003202000004
:020000040000fa
:0400c8003202000000
:020000040000fa
:0400cc0032020000fc
:020000040000fa
:0400d00032020000f8
:020000040000fa
:0400d40032020000f4
:020000040000fa
:0400d80032020000f0
:020000040000fa
:0401080032020000bf
:020000040000fa
:04010c0032020000bb
:020000040000fa
:0401100032020000b7
:020000040000fa
:0401140032020000b3
:020000040000fa
:0401180032020000af
:020000040000fa
:04011c0032020000ab
:020000040000fa
:0401200032020000a7
:020000040000fa
:0401240032020000a3
:020000040000fa
:04012800320200009f
:020000040000fa
:04012c00320200009b
:020000040000fa
:040130003202000097
:020000040000fa
:0401340002020000c3
:020000040000fa
:04013800320200008f
:020000040000fa
:04013c00320200008b
:020000040000fa
:040140001e0200009b
:020000040000fa
:040144003202000083
:020000040000fa
:04014800320200007f
:020000040000fa
:04014c00e8010000c6
:020000040000fa
:040150003202000077
:020000040000fa
:04015400c8010000de
:020000040000fa
:04015800320200006f
:020000040000fa
:04015c00320200006b
:020000040000fa
:040160003202000067
:020000040000fa
:040164003202000063
:020000040000fa
:04016800320200005f
:020000040000fa
:04016c00320200005b
:020000040000fa
:040170003202000057
:020000040000fa
:040174003202000053
:020000040000fa
:04017800320200004f
:020000040000fa
:04017c00320200004b
:020000040000fa
:040180003202000047
:020000040000fa
:040184003202000043
:020000040000fa
:04018800320200003f
:020000040000fa
:04018c00320200003b
:020000040000fa
:040190003202000037
:020000040000fa
:040194003202000033
:020000040000fa
:04019800320200002f
:020000040000fa
:04019c00320200002b
:020000040000fa
:0401a0003202000027
:020000040000fa
:0401a4003202000023
:020000040000fa
:0401a800320200001f
:020000040000fa
:0401ac00320200001b
:020000040000fa
:0401b0003202000017
:020000040000fa
:0401b4003202000013
:020000040000fa
:0401b800320200000f
:020000040000fa
:0401bc00320200000b
:020000040000fa
:0401c0003202000007
:020000040000fa
:0401c4003202000003
:020000040000fa
:0401c80032020000ff
:020000040000fa
:0401cc0032020000fb
:020000040000fa
:0401d00032020000f7
:020000040000fa
:0401d40032020000f3
:020000040000fa
:0401d80032020000ef
:020000040000fa
:100200006f8220000eff20000e0188000000000019
:10021000000020000000e000020032000001200089
:100220002002880014000700900007000000e00092
:1002300003003a00606f2000010020000200370038
:100240000000200001002000810f7000010032003a
:1002500014000700000020000000e000020032004f
:1002600000000200000000000a040200000000007c
:100270000040da000000fe004440a9000000200019
:100280000000e0000300320000002000a001880010
:100290004440a800000006008a1f78008b1f7800e9
:1002a0000000060091018800800478000000eb0047
:1002b0001a003700e284440032a0b4009905ba0065
:1002c000e284440032a0b4009906ba00e2844400fb
:1002d00032a0b4000006eb00476fde00fd07b2005d
:1002e000636ce10003003a00ebff07000000eb0045
:1002f0000a003700606ce10004003a00005deb008a
:100300008b05e900fdff3e00040037006168e10055
:10031000010032000086eb000b00070019c7ba008d
:100320001905ba000e04e00003003a000a00e000dc
:10033000e0ff3a0000000600fe07b2009e018800c0
:100340008a047800f5ff3700395dba008b05e900b3
:100350000c003200295dba008b05e900080032006c
:100360000c00e00003003a00e284440032a0b40034
:10037000f5ff370019ddba008b05e900faff3a00f6
:100380008904e800e184440032a0b40000000600c3
:10039000801f78003400f80000002000a0018800d1
:1003a0000000fa0000148000504088001014800003
:1003b0004040880020148000604088008560a900cb
:1003c0000080fa003400f9004f0078000040060079
:1003d000801f78003400f80000002000a001880091
:1003e0000000fa008520a9009010800000407800ed
:1003f00006e8b7000080fa003400f9004f007800ea
:1004000000400600801f78003400f8000000200043
:10041000a00188000000fa000021ef00b040800039
:100420000000e800b04088008460a9000080fa0065
:100430003400f9004f007800004006003400f80056
:10044000881f780008002000a80188004f04780069
:100450000000fa0084c0a9000080fa003400f9000e
:10046000004006000040da000000fe000000050029
:020000040000fa
:100470000000fa00a942a800d202a900d222a900d5
:10048000d262a900c742a900c602a800d322a800d0
:10049000c622a800c642a800d302a800dea2a90076
:1004a000dec2a900de82a900de62a8000080fa0098
:1004b000000006000200fa00000f78001628ef0086
:1004c000000000009e007800b0408000808f500047
:1004d000fcff3e000080fa00000006000200fa0067
:1004e000000f78001828ef00000000009e00780040
:1004f000b0408000808f5000fcff3e000080fa007a
:10050000000006000000fa00b01680000000d100d4
:100510006140600000c0ea00614060000080fb00b4
:100520006100600000004000b11680000110a100d1
:1005300001007000b016880010002000e7ff0700df
:10054000b01680000000d1006140600000c0ea00e9
:10055000614060000080fb0061006000000040001e
:10056000b11680000110a10001007000b0168800d3
:1005700030012000d9ff07000080fa0000000600cb
:100580000000fa00b01680000000d1006140600059
:1005900000c0ea00614060000080fb006100600074
:1005a00000004000b11680000110a10001007000a1
:1005b000b016880020002000c8ff0700b016800099
:1005c0000000d1006140600000c0ea0061406000ae
:1005d0000080fb006100600000004000b116800058
:1005e0000110a10001007000b01688002001200059
:1005f000baff07000080fa00000006000000fa00c1
:1006000060408000f04088006040800001af200022
:100610000080500000418800c942a80000418000cd
:10062000a4ff0700c942a900f0408000a1ff070015
:100630000080fa00000006000000fa00a116800009
:1006400000102000008060000000e0000200320086
:1006500010002000010037000000eb000080fa00cd
:10066000000006000200fa0040408000c500de00e5
:10067000904120000008b8008100d1004006200011
:100680000088b90000007800000f78001e00780094
:100690000080fa00000006000000fa001428ef00b5
:1006a000a04080000080fa00000006000000fa0070
:1006b000007d2000a0408800a04080000080fa005b
:1006c000000006000000fa00f3ff0700000c88009d
:1006d0000071220077ff0700f4ff0700000c88007c
:1006e0000071220073ff07000080fa00000006007e
:1006f0000200fa000000eb00000f7800080037004d
:10070000d402a900e01520006aff0700d402a80067
:10071000e015200067ff0700d402a9001e0fe800c3
:100720001e007800e90f5000f5ff36000080fa0047
:10073000000006000200fa000000eb00000f780045
:1007400008003700d402a9004006200059ff070026
:10075000d402a800401f200056ff0700d402a900c1
:100760001e0fe8001e007800ee0f5000f5ff360067
:100770000080fa00000006000000fa0000000000ff
:100780001116800000802000008060000000e00062
:10079000fbff320005e1a8000000000011168000f8
:1007a00000802000008060000000e000fbff3a00b5
:1007b00005e1a90000088000104088000080fa00d0
:1007c000000006000000fa000032200060088800e7
:1007d00051408000d0cc2c000008b8004308de0057
:1007e000300c880060fc2d00500c880011e1a8003e
:1007f0000080fa00000006000000fa00d262a800a3
:10080000400020002bff0700d262a9000080fa0000
:10081000000006000a00fa0030079800410798001f
:1008200010002000000f78000000eb001007980077
:10083000a0002000200798000a00070024010700fc
:100840000bff070090012000a3000700a1e2a80011
:100850008000eb009001200009010700d9ff07008c
:10086000feff37000000fa0000042000a0108800fe
:100870000d42a8008d20a80071108000c0ff2f003d
:1008800000806000701088000de2a8000f42a800f0
:100890000080fa00000006000200fa00000f780055
:1008a0000000000071108000001020000080600037
:1008b0000000e000fbff3200601080006600600076
:1008c000e60f500003003a009e0078008110880077
:1008d00003003700f00f20001e0060008010880029
:1008e0000080fa00000006000000fa00881f78006f
:1008f0000004780004003700184078000000fb0076
:10090000e5ff07000804e800184078000004e00054
:10091000f9ff3a004f0478000080fa00000006005a
:100920000400fa00100798001e009000c300de00cb
:10093000500c22000008b8004408de00004f780088
:100940001e80fb000003b000d3ff07009e80fb0069
:1009500080c12f000088b900000078009e00900040
:1009600000804000100798001e009000c200de00ca
:10097000b04721000008b8000100d100004f780006
:100980001e80fb000003b000c3ff07009e80fb0039
:10099000c0f92f000088b900000078009e00900088
:1009a00000804000100798009e009000d0cc2c00e2
:1009b0000008b8004308de00004f78001e80fb00ee
:1009c0000003b000b4ff07009e80fb0060ff2f0013
:1009d0000088b900000078009e0090000080400070
:1009e000100798001e0090000003b000aaff070047
:1009f0000080fa00000006000000fa008c60a900e8
:100a000005e1a9008460a9000080fa00000006004a
:100a10000200fa00000f78008460a9001e00780030
:100a200000407800674060006740600067406000f9
:100a30000080fb00670060004c00dd00a204800025
:100a4000f1ff28008100610001007000a00488000f
:100a50009e007800688060004300de00004078005f
:100a6000614060000080fb00610060004300dd0029
:100a7000610480000130a100010070006004880062
:100a80000080fa00000006000400fa00000f780061
:100a9000110798000021ef009e00900011088800c7
:100aa0009e007800210888000080fa0000000600ff
:100ab0000000fa00000880000080fa000000060034
:100ac0000200fa00000f78009e00780001088800fc
:100ad0000080fa00000006000400fa0010079800e9
:100ae00090ff2f00caff07000000eb00f4ff070093
:100af0009e009000010f78009e00780090f82d0075
:100b0000e1ff07000080fa00000006000000fa0084
:100b10008cc0a90011e1a90084c0a9000080fa00de
:100b2000000006000200fa00000f780084c0a9004f
:100b30001e00780000407800674060006740600059
:100b4000674060000080fb00670060004800dd0037
:100b5000b2048000f18f2f0081006100010070005d
:100b6000b00488009e007800688060004300de00ca
:100b700000407800614060000080fb006100600080
:100b80004600dd00610480000160a10001007000ea
:100b9000600488000080fa00000006000400fa00eb
:100ba000000f7800110798000621ef009e009000ca
:100bb000610888009e007800810888001061a90003
:100bc0000080fa00000006000000fa0030088000f3
:100bd0000080fa00000006000200fa00000f780012
:100be0009e007800310888000080fa0000000600ae
:100bf0000000fa008ce0a90013e1a90084e0a9003c
:100c00000080fa00000006000200fa00000f7800e1
:100c100084e0a9001e007800004078006740600072
:100c200067406000674060000080fb006700600074
:100c30004c00dd00b2048000f1ff2800810061005b
:100c400001007000b00488009e0078006880600099
:100c50004300de0000407800614060000080fb003f
:100c6000610060004700dd00610480000170a100a8
:100c700001007000600488000080fa000000060097
:100c80000400fa00000f7800110798000a21ef0015
:100c90009e009000710888009e00780091088800ee
:100ca0000080fa00000006000000fa0050088000f2
:100cb0000080fa00000006000200fa00000f780031
:100cc0009e007800510888000080fa0000000600ad
:100cd0000000fa00a1a2a90001158000f0cf2f00aa
:100ce000008060000015880001158000000e2000c3
:100cf0000100700000158800a022a80011158000d6
:100d000000002e000100700010158800a342a8000a
:100d10001115800030fc2f00008060000030a00022
:100d200010158800a222a900a202a90021158000a6
:100d300000f021000100700020158800a4e2a80046
:100d40002115800000fc2f0000806000f001b3003e
:100d500020158800a782a900a682a900311580006d
:100d600000ff2f00008060003015880031158000e2
:100d7000f00f2f000080600030158800a822ef00df
:100d80007000200050158800a042a8008560a800cf
:100d90008d60a8000080fa00000006000000fa0044
:100da0000621ef0040062000600888001021a800fe
:100db00084c0a9008cc0a80011e1a8000080fa003e
:100dc000000006000000fa000021ef000071220080
:100dd000600888000421a8008460a9008c60a80035
:0c0de00005e1a8000080fa0000000600f9
:020000040000fa
:100dec0000080000260000000000000000000000c9
:020000040000fa
:0200000401f009
:040000000587000070
:020000040000fa
:0200000401f009
:040004003f000000b9
:00000001FF
